{
  "_format": "hh-sol-artifact-1",
  "contractName": "TrustFund",
  "sourceName": "contracts/TrustFund.sol",
  "abi": [
    {
      "inputs": [],
      "stateMutability": "nonpayable",
      "type": "constructor"
    },
    {
      "inputs": [
        {
          "internalType": "address",
          "name": "beneficiary",
          "type": "address"
        },
        {
          "internalType": "uint256",
          "name": "timeToMaturity",
          "type": "uint256"
        }
      ],
      "name": "addBeneficiary",
      "outputs": [],
      "stateMutability": "payable",
      "type": "function"
    },
    {
      "inputs": [],
      "name": "admin",
      "outputs": [
        {
          "internalType": "address",
          "name": "",
          "type": "address"
        }
      ],
      "stateMutability": "view",
      "type": "function"
    },
    {
      "inputs": [
        {
          "internalType": "address",
          "name": "",
          "type": "address"
        }
      ],
      "name": "beneficiaries",
      "outputs": [
        {
          "internalType": "uint256",
          "name": "amount",
          "type": "uint256"
        },
        {
          "internalType": "uint256",
          "name": "maturity",
          "type": "uint256"
        },
        {
          "internalType": "bool",
          "name": "paid",
          "type": "bool"
        }
      ],
      "stateMutability": "view",
      "type": "function"
    },
    {
      "inputs": [],
      "name": "withdraw",
      "outputs": [],
      "stateMutability": "nonpayable",
      "type": "function"
    }
  ],
  "bytecode": "0x608060405234801561001057600080fd5b5033600160006101000a81548173ffffffffffffffffffffffffffffffffffffffff021916908373ffffffffffffffffffffffffffffffffffffffff160217905550610631806100616000396000f3fe60806040526004361061003f5760003560e01c806301567739146100445780633ccfd60b146100b957806396074e70146100d0578063f851a4401461011e575b600080fd5b34801561005057600080fd5b506100936004803603602081101561006757600080fd5b81019080803573ffffffffffffffffffffffffffffffffffffffff16906020019092919050505061015f565b604051808481526020018381526020018215158152602001935050505060405180910390f35b3480156100c557600080fd5b506100ce610196565b005b61011c600480360360408110156100e657600080fd5b81019080803573ffffffffffffffffffffffffffffffffffffffff169060200190929190803590602001909291905050506103c2565b005b34801561012a57600080fd5b506101336105d5565b604051808273ffffffffffffffffffffffffffffffffffffffff16815260200191505060405180910390f35b60006020528060005260406000206000915090508060000154908060010154908060020160009054906101000a900460ff16905083565b60008060003373ffffffffffffffffffffffffffffffffffffffff1673ffffffffffffffffffffffffffffffffffffffff16815260200190815260200160002090504281600101541015610252576040517f08c379a00000000000000000000000000000000000000000000000000000000081526004018080602001828103825260168152602001807f546f6f206561726c7920746f207769746864726177210000000000000000000081525060200191505060405180910390fd5b60008160000154116102cc576040517f08c379a000000000000000000000000000000000000000000000000000000000815260040180806020018281038252601e8152602001807f4f6e6c792062656e65666963696172792063616e20776974686472617721000081525060200191505060405180910390fd5b600015158160020160009054906101000a900460ff16151514610357576040517f08c379a00000000000000000000000000000000000000000000000000000000081526004018080602001828103825260128152602001807f416c72656164792077697468647261776e21000000000000000000000000000081525060200191505060405180910390fd5b60018160020160006101000a81548160ff0219169083151502179055503373ffffffffffffffffffffffffffffffffffffffff166108fc82600001549081150290604051600060405180830381858888f193505050501580156103be573d6000803e3d6000fd5b5050565b600160009054906101000a900473ffffffffffffffffffffffffffffffffffffffff1673ffffffffffffffffffffffffffffffffffffffff163373ffffffffffffffffffffffffffffffffffffffff1614610485576040517f08c379a000000000000000000000000000000000000000000000000000000000815260040180806020018281038252601f8152602001807f4f6e6c792061646d696e2063616e206164642062656e6566696369617279210081525060200191505060405180910390fd5b60008060008473ffffffffffffffffffffffffffffffffffffffff1673ffffffffffffffffffffffffffffffffffffffff168152602001908152602001600020600001541461053c576040517f08c379a000000000000000000000000000000000000000000000000000000000815260040180806020018281038252601b8152602001807f42656e656669636961727920616c72656164792065786973747321000000000081525060200191505060405180910390fd5b60405180606001604052803481526020018242018152602001600015158152506000808473ffffffffffffffffffffffffffffffffffffffff1673ffffffffffffffffffffffffffffffffffffffff168152602001908152602001600020600082015181600001556020820151816001015560408201518160020160006101000a81548160ff0219169083151502179055509050505050565b600160009054906101000a900473ffffffffffffffffffffffffffffffffffffffff168156fea2646970667358221220d1b69609560f45a8dae2760ad10f484d2c609374155226c7712c22c88cc8428c64736f6c63430007030033",
  "linkReferences": {},
  "deployedLinkReferences": {}
}